:100000000A128A1110280834FE00030E831203130B
:10001000A2000408A3000A08A4000A128A11952964
:100020000A128A111328831603130A128A11032055
:100030000A128A11E5008313A0308400D5300A1219
:100040008A1550210A128A115430840065300A1230
:100050008A1550210A128A11FB01FC01FD0183015E
:100060000A128A11D82A83120313D40183160313A8
:100070003F08E0003E08DF003D08DE003C08DD00F0
:100080003B08E4003A08E3003908E2003808E100E0
:100090005D0883120313C500831603135E088312E1
:1000A0000313C600831603135F0883120313C700EC
:1000B00083160313600883120313C8008316031307
:1000C000340883120313C502831603133508031C77
:1000D000350F6B286E2883120313C6028316031391
:1000E0003608031C360F7528782883120313C702BD
:1000F000831603133708031C370F7F2882288312C7
:100100000313C802831603138312031348088316CC
:100110000313D80083120313470883160313D70071
:1001200083120313460883160313D60083120313A6
:10013000450883160313D500610883120313C50015
:1001400083160313620883120313C6008316031376
:10015000630883120313C700831603136408831212
:100160000313C80083160313300883120313C50258
:10017000831603133108031C310FBF28C2288312D2
:100180000313C602831603133208031C320FC92857
:10019000CC2883120313C702831603133308031CEE
:1001A000330FD328D62883120313C80283160313F0
:1001B00083120313480883160313DC00831203130E
:1001C000470883160313DB008312031346088316C4
:1001D0000313DA0083120313450883160313D900AF
:1001E0006008B7005F08B6005E08B5005D08B4009F
:1001F0006408B3006308B2006208B1006108B0008F
:10020000003083120313BA000030B9000030B80088
:100210001430B70083160313580883120313AD007C
:1002200083160313570883120313AC0083160313BA
:10023000560883120313AB00831603135508831269
:100240000313AA000030B1000030B0000230AF004C
:100250005830AE000A128A152A250A128A11831212
:1002600003132D08BE002C08BD002B08BC002A0873
:10027000BB000A128A15D8250A128A1183120313A9
:10028000380883160313C300831203133708831639
:100290000313C200003083120313BA000030B90008
:1002A0000030B8001430B700831603135C088312C3
:1002B0000313AD00831603135B0883120313AC0012
:1002C000831603135A0883120313AB008316031318
:1002D000590883120313AA000030B1000030B000A7
:1002E0000230AF005830AE000A128A152A250A12D1
:1002F0008A11831203132D08BE002C08BD002B08A1
:10030000BC002A08BB000A128A15D8250A128A11D5
:1003100083120313380883160313C10083120313D7
:10032000370883160313C0000800981C98299929E0
:100330009B29181218160C08A00005300310A00CF9
:10034000FF3E031D9E29201CA629A729FD298316EF
:1003500003130C0883120313A00005300310A00C34
:10036000FF3E031DAE29201CB629B729FD291A0816
:10037000A900E10160080319BE29BF29C8290A1292
:100380008A1540210A128A1183120313E001E40145
:100390006408031DCC29CD29D82906302902031869
:1003A000D229D329FD292908E3000130E400FD29E1
:1003B000653029020318DD29DE29E6292908A00075
:1003C000A1012008A5002108A600EA296430A500A3
:1003D0000030A6002508E20063080A128A157D2273
:1003E0000A128A118312031362080A128A157D22E7
:1003F0000A128A1183120313E4010B08A0000230D1
:100400000310A00CFF3E031D002A201C082A092A05
:100410005F2A0B08A00005300310A00CFF3E031D4F
:100420000C2A201C142A152A5F2A06308100FB3072
:100430008B050A128A15BC210A128A110A128A1522
:1004400038210A128A11003A0319272A282A2C2A4D
:10045000013083120313DC00013083120313DF0722
:1004600006305F02031C352A362A392ADF010130A3
:10047000DD003230610203183E2A3F2A422A013051
:10048000E1074A2A6008031D462A472A4A2A013002
:10049000E000E401600803194E2A4F2A5E2A013069
:1004A000DE0714305E02031C562A572A5F2ADE013B
:1004B0000A128A159D220A128A115F2ADE010B0890
:1004C00083120313A00001300310A00CFF3E031D94
:1004D000642A201C6C2A6D2A8B2A0B08A000043089
:1004E0000310A00CFF3E031D702A201C782A792AD5
:1004F0008B2A013083160313BC0700300318013028
:10050000BD07003003180130BE070030031801306A
:10051000BF07FD308B050B1C8E2A8F2ACD2A0B08B6
:100520008312A00003300310A00CFF3E031D932A8A
:10053000201C9B2A9C2ACD2A0608A7002708A00079
:1005400004300310A00CFF3E031DA12A2008A800C0
:100550000130A80528080319AE2AAF2AC42A5B086F
:10056000031DB32AB42AC42A013083160313B80723
:10057000003003180130B907003003180130BA0702
:10058000003003180130BB0783122808DB0027085E
:100590000A128A1190260A128A1183120313240860
:1005A0008A0023088400220E8300FE0E7E0E0900BE
:1005B0000630831603139F000A128A1558210A1267
:1005C0008A110A128A15E8210A128A110A128A155A
:1005D0003E260A128A110A128A1517270A128A1150
:1005E0000A128A15CA210A128A110A128A1548218A
:1005F0000A128A110A128A1562220A128A110A1232
:100600008A15F9210A128A110A128A15D9210A12A9
:100610008A110A128A150A220A128A110B16FD3053
:100620008B050B178B170A128A156E210A128A1175
:10063000043083120313D000CF30CF000130CE003E
:10064000CE0B202BCF0B202BD00B202B0A128A1580
:1006500062210A128A11043083120313D000CF30B2
:10066000CF000130CE00CE0B332BCF0B332BD00B72
:10067000332B0A128A156E210A128A110430831252
:100680000313D000CF30CF000130CE00CE0B462B6D
:10069000CF0B462BD00B462B0A128A1562210A1269
:1006A0008A110A128A15E4240A128A11831203138A
:1006B000D100510803195D2B5E2B642B0A128A1599
:1006C000C0220A128A11AF2B0A128A1536210A1289
:1006D0008A1183120313CE0002304E02031C712BC9
:1006E000722BAF2BD301D2015330AA000A128A1504
:1006F0009E240A128A11523083120313AA000A128E
:100700008A159E240A128A11053083120313530698
:10071000031D8B2B8C2B942BC10105300A128A15DB
:1007200086270A128A11AF2B53085A06031D992BEC
:100730009A2BA02B5208590603199F2BA02BAD2BE7
:100740005308DA005208D9005208C10053080A12AF
:100750008A1586270A128A11AF2B5308DA008312F2
:1007600003135C080319B52BB62BBC2BDC010A1252
:100770008A1133200A128A11831203135D080319A8
:10078000C22BC32B512BDD010A128A11FC250A1240
:100790008A110A128A1196270A128A11512B0A12FB
:1007A0008A11102883120313AD00802C2B08031D1F
:1007B000DA2BDB2BEA2B0130AC002A0AE12B0310E9
:1007C000AC0DFF3E031DDF2B2C08FF3A83160313ED
:1007D0008505912C0130AC002A0AF02B0310AC0DDA
:1007E000FF3E031DEE2B2C08831603138504912C6A
:1007F0002B08031DFC2BFD2B0C2C0130AC002A0A0E
:10080000032C0310AC0DFF3E031D012C2C08FF3AF6
:10081000831603138605912C0130AC002A0A122C92
:100820000310AC0DFF3E031D102C2C088316031380
:100830008604912C2B08031D1E2C1F2C2E2C0130FE
:10084000AC002A0A252C0310AC0DFF3E031D232CFF
:100850002C08FF3A831603138705912C0130AC0056
:100860002A0A342C0310AC0DFF3E031D322C2C0839
:10087000831603138704912C2B08031D402C412C55
:10088000502C0130AC002A0A472C0310AC0DFF3E5F
:10089000031D452C2C08FF3A831603138805912C61
:1008A0000130AC002A0A562C0310AC0DFF3E031D8C
:1008B000542C2C08831603138804912C2B08031D39
:1008C000622C632C722C0130AC002A0A692C0310B4
:1008D000AC0DFF3E031D672C2C08FF3A8316031353
:1008E0008905912C0130AC002A0A782C0310AC0D3C
:1008F000FF3E031D762C2C08831603138904912CCC
:100900002D08003A0319D62B013A0319F82B033AA4
:1009100003191A2C013A03193C2C073A03195E2CCF
:10092000912C0800F3003E2D7103031D982C992C87
:10093000A72C0130F200700A9F2C0310F20DFF3E2D
:10094000031D9D2C72088312031385044F2D013063
:10095000F200700AAD2C0310F20DFF3E031DAB2C0C
:100960007208FF3A8312031385054F2D7103031D8F
:10097000BA2CBB2CC92C0130F200700AC12C031018
:10098000F20DFF3E031DBF2C720883120313860471
:100990004F2D0130F200700ACF2C0310F20DFF3EF4
:1009A000031DCD2C7208FF3A8312031386054F2DC9
:1009B0007103031DDC2CDD2CEB2C0130F200700ADE
:1009C000E32C0310F20DFF3E031DE12C720883128D
:1009D000031387044F2D0130F200700AF12C03102D
:1009E000F20DFF3E031DEF2C7208FF3A8312031332
:1009F00087054F2D7103031DFE2CFF2C0D2D01309B
:100A0000F200700A052D0310F20DFF3E031D032DA9
:100A100072088312031388044F2D0130F200700A0C
:100A2000132D0310F20DFF3E031D112D7208FF3A26
:100A30008312031388054F2D7103031D202D212DD3
:100A40002F2D0130F200700A272D0310F20DFF3E0A
:100A5000031D252D72088312031389044F2D0130C5
:100A6000F200700A352D0310F20DFF3E031D332DE9
:100A70007208FF3A8312031389054F2D7308003A59
:100A80000319942C013A0319B62C033A0319D82CF4
:100A9000013A0319FA2C073A03191C2D4F2D0800AF
:100AA00083120313AD00EA2D2B03031D582D592D7E
:100AB000652D0130AC002A0A5F2D0310AC0DFF3EFE
:100AC000031D5D2D2C088504FB2D0130AC002A0A86
:100AD0006B2D0310AC0DFF3E031D692D2C08FF3A52
:100AE0008505FB2D2B03031D762D772D832D0130DE
:100AF000AC002A0A7D2D0310AC0DFF3E031D7B2D9B
:100B00002C088604FB2D0130AC002A0A892D031025
:100B1000AC0DFF3E031D872D2C08FF3A8605FB2DEB
:100B20002B03031D942D952DA12D0130AC002A0A15
:100B30009B2D0310AC0DFF3E031D992D2C0887043F
:100B4000FB2D0130AC002A0AA72D0310AC0DFF3E8F
:100B5000031DA52D2C08FF3A8705FB2D2B03031D34
:100B6000B22DB32DBF2D0130AC002A0AB92D0310D0
:100B7000AC0DFF3E031DB72D2C088804FB2D013062
:100B8000AC002A0AC52D0310AC0DFF3E031DC32D7A
:100B90002C08FF3A8805FB2D2B03031DD02DD12DEA
:100BA000DD2D0130AC002A0AD72D0310AC0DFF3E1D
:100BB000031DD52D2C088904FB2D0130AC002A0A19
:100BC000E32D0310AC0DFF3E031DE12D2C08FF3A71
:100BD0008905FB2D2D08003A0319542D013A0319FC
:100BE000722D033A0319902D013A0319AE2D073ADD
:100BF0000319CC2DFB2D08000A128A1588210A1230
:100C00008A11831203132B08B2002A08B1000A12BA
:100C10008A1595210A128A11831203132B08B40036
:100C20002A08B3000A128A157B210A128A1183123C
:100C300003132B08AD002A08AC000A128A154822BB
:100C40000A128A1183120313AE000A128A15A22116
:100C50000A128A11831203132B08AD002A08AC0074
:100C60000A128A1548220A128A1183120313AF004E
:100C70000A128A15AF210A128A11831203132B0854
:100C8000AD002A08AC000A128A1548220A128A11FD
:100C900083120313B000AA300A128A1532220A12F4
:100CA0008A11831203132E080A128A1532220A129D
:100CB0008A11831203132F080A128A1532220A128C
:100CC0008A118312031330080A128A1532220A127B
:100CD0008A118312031332080A128A1532220A1269
:100CE0008A118312031331080A128A1532220A125A
:100CF0008A118312031334080A128A1532220A1247
:100D00008A118312031333080A128A1532220A1237
:100D10008A1155300A128A1532220A128A110800E5
:100D2000F800831203130F08FA000E08F900780880
:100D30005806F700F71E9D2E9E2EC22EF81EA12EDD
:100D4000A22EA92E7A0883160313CD007908CC00B1
:100D5000C22E3A30F0000030F100831603134C0825
:100D60007902F2004D08031C4D0A7A02F3000A12C0
:100D70008A1518240A128A11710883160313D300E6
:100D80007008D200771FC52EC62EEA2E781FC92EF6
:100D9000CA2ED12E7A0883160313CB007908CA0015
:100DA000EA2E3A30F0000030F100831603134A08AF
:100DB0007902F2004B08031C4B0A7A02F3000A1274
:100DC0008A1518240A128A11710883160313D10098
:100DD0007008D000F71FED2EEE2E122FF81FF12E07
:100DE000F22EF92E7A0883160313C9007908C80079
:100DF000122F3A30F0000030F10083160313480838
:100E00007902F2004908031C490A7A02F3000A1227
:100E10008A1518240A128A11710883160313CF0049
:100E20007008CE0078088312D8000B1008008312D7
:100E30000313BC0065303702031C1F2F202F222F05
:100E40006430B7006430B0000030B1008316031383
:100E5000120883120313B800B9010310B80DB90DBD
:100E60000310B80DB90D3808043EAA00390803185C
:100E7000013E003EAB003708BA00BB013A08AC00A7
:100E80003B08AD000A128A15E3220A128A11831266
:100E900003132B08B3002A08B2000A128A155A2439
:100EA0000A128A11831203133108BE003008BD00F4
:100EB0003C08031D5C2F5D2F772F3E08B9003D08CD
:100EC000B8000310B90CB80C0310B90CB80C3808F2
:100ED00095003D080339B80004300310B80DFF3EFB
:100EE000031D6D2F1708CF3938049700952F3C0349
:100EF000031D7B2F7C2F952F3E08B9003D08B800BD
:100F00000310B90CB80C0310B90CB80C38089B00CE
:100F10003D080339B80004300310B80DFF3E031D2F
:100F20008C2F1D08CF3938049D0008007C08031D54
:100F30009A2F9B2FBA2F83120313AA01AB01AB0A7E
:100F400000300A128A1150250A128A110F308312BA
:100F50000313AE00AE0BAA2FAD2F83120313AA0109
:100F6000AB0100300A128A1150250A128A11013091
:100F7000FC00FF2F7C03031DBE2FBF2FE02F831229
:100F80000313AA01AA0AAB01AB0A00300A128A11A4
:100F900050250A128A110F3083120313AE00AE0BD4
:100FA000CF2FD22F83120313AA01AA0AAB0100305C
:100FB0000A128A1150250A128A110230FC00FF2FF2
:100FC000023083120313AA00AB01AB0A00300A12ED
:100FD0008A1150250A128A110F3083120313AE00B2
:100FE000AE0BF02FF32F023083120313AA00AB01D4
:100FF00000300A128A1150250A128A11FC010800D9
:1010000008308A000408840A820700341934323414
:041010004B346434C5
:10126C007B0808008312031354080800831203132D
:10127C001215080083160313C601C701C401C5016A
:10128C00FB01080083160313C601C701C401C50185
:10129C00FB01080064008001840A04060319003471
:1012AC0004065129831603138501FF30860083122F
:1012BC000313850186010800053083120313AA006D
:1012CC00AB0102300A128A1150250A128A15080045
:1012DC00053083120313AA00AB01AB0A02300A12C9
:1012EC008A1150250A128A15080083160313530815
:1012FC0083120313AB0083160313520883120313D8
:10130C00AA00080083160313430883120313AB00CF
:10131C0083160313420883120313AA0008008316D2
:10132C000313410883120313AB0083160313400805
:10133C0083120313AA0008008316031351088312A7
:10134C000313AB0083160313500883120313AA0074
:10135C000800831603134F0883120313AB00831684
:10136C0003134E0883120313AA00080001308312E2
:10137C000313D50706305502031CC529C629C929F4
:10138C000130D400D501080083160313061401178D
:10139C00FD308B050B160616831203130608FE3060
:1013AC008B058B150800831603130717181581304E
:1013BC009900EF30980583120313981783160313C3
:1013CC0098160800053083120313AA00AB010230F3
:1013DC000A128A11D2230A128A150A128A1562215C
:1013EC000A128A150800DF30831603138105F730C3
:1013FC008105011481140115063083120313810039
:10140C00FB308B058B1608008316031387171815F2
:10141C0081309900EF309805831203139817181632
:10142C00831603138C160B178B17080083120313E8
:10143C00BF003F08B70000300A128A1117270A12A2
:10144C008A15831203133F08B70001300A128A1160
:10145C0017270A128A15080083120313AB00831690
:10146C000313180883120313AA0001300310AA0CEB
:10147C00FF3E031D3C2A2A1C442A452A352A2B08E8
:10148C00990008000030831203132D020330031956
:10149C002C020318522A532A552A0030612A013093
:1014AC002D02003003192C02031C5D2A5E2A602ACF
:1014BC00FF30612A2C08080083120313D501D401D4
:1014CC0083160313C201C301C001C1013F08B70059
:1014DC003E08B6003D08B5003C08B4003B08B3001C
:1014EC003A08B2003908B1003808B0000800F20020
:1014FC0010307B020318832A842A9C2A8316031338
:10150C004608A03E84007208831380004608013E02
:10151C00F00047080318013E003EF1000F30700543
:10152C00C60000307105C7000130FB07080005300C
:10153C00F00002300A128A1572250A128A15F4007C
:10154C007403031DAA2AAB2AB52A0530F000F10159
:10155C0002300A128A1192240A128A15BF2A053007
:10156C00F000F101F10A02300A128A1192240A12D7
:10157C008A15080083120313AF01D42A2F30AA0056
:10158C000A128A159E240A128A152F30831203130D
:10159C00AA000A128A159E240A128A150A128A15A2
:1015AC0036210A128A1583120313AE0002302E0262
:1015BC000318E12AE22AC42A080083120313AE019D
:1015CC00AF012A1CEA2AEB2AF12A2C08AE070318D1
:1015DC00AF0A2D08AF0701300310AC0DAD0DFF3E67
:1015EC00031DF22A01300310AB0CAA0CFF3E031DA5
:1015FC00F92A2A082B04031D042B052BE72A2F0894
:10160C00AB002E08AA000800023083120313AA00B4
:10161C00AB0103300A128A1150250A128A150330C5
:10162C0083120313AA00AB0103300A128A1150254E
:10163C000A128A1583120313AA01AB0103300A1292
:10164C008A1150250A128A1583120313AA01AA0AB9
:10165C00AB0103300A128A1150250A128A15003088
:10166C000A128A151C220A128A1508008312031307
:10167C00C0000230AA00AB01AB0A03300A128A1177
:10168C0050250A128A15033083120313AA00AB01EA
:10169C0003300A128A1150250A128A158312031379
:1016AC00AA01AB01AB0A03300A128A1150250A12A7
:1016BC008A1583120313AA01AA0AAB0103300A127A
:1016CC008A1150250A128A158312031340080A1234
:1016DC008A151C220A128A15080083120313C000F3
:1016EC000230AA00AB0103300A128A1150250A12EB
:1016FC008A15033083120313AA00AB01AB0A033023
:10170C000A128A1150250A128A1583120313AA0190
:10171C00AB0103300A128A1150250A128A15831262
:10172C000313AA01AA0AAB01AB0A03300A128A11ED
:10173C0050250A128A158312031340080A128A15BF
:10174C001C220A128A15080083120313C0000230EF
:10175C00AA00AB0103300A128A1150250A128A150D
:10176C00033083120313AA00AB01AB0A03300A1235
:10177C008A1150250A128A1583120313AA01AB0190
:10178C00AB0A03300A128A1150250A128A158312E9
:10179C000313AA01AA0AAB0103300A128A115025BD
:1017AC000A128A158312031340080A128A151C2286
:1017BC000A128A15080083120313C0000230AA0013
:1017CC00AB01AB0A03300A128A1150250A128A1592
:1017DC00033083120313AA00AB0103300A128A11DF
:1017EC0050250A128A1583120313AA01AB01033088
:1017FC000A128A1150250A128A1583120313AA01A0
:10180C00AA0AAB01AB0A03300A128A1150250A123C
:10181C008A158312031340080A128A151C220A1215
:10182C008A150800F401F5017008710403191F2CC6
:10183C00202C552C0130F6002C2C01300310F00D0F
:10184C00F10DFF3E031D242C0130F607F11F2F2C48
:10185C00302C232C01300310F40DF50DFF3E031D2D
:10186C00312C71087302031D3D2C70087202031C8D
:10187C00402C412C482C7008F2027108031CF30315
:10188C00F302741401300310F10CF00CFF3E031D35
:10189C00492C0130F602031D542C552C302C7508A4
:1018AC00F1007408F000080083120313B401B501B1
:1018BC00300831040319632C642C992C0130B600C8
:1018CC00702C01300310B00DB10DFF3E031D682CC0
:1018DC000130B607B11F732C742C672C0130031028
:1018EC00B40DB50DFF3E031D752C31083302031DDD
:1018FC00812C30083202031C842C852C8C2C300853
:10190C00B2023108031CB303B302341401300310C8
:10191C00B10CB00CFF3E031D8D2C0130B602031D23
:10192C00982C992C742C3508B1003408B0000800A0
:10193C00831203132A08031DA42CA52CA62CE32C1C
:10194C007B080319AA2CAB2CE32C83160313440835
:10195C00A03E840083130008FF00831203132A089F
:10196C0084007F088000831603134408013E831211
:10197C000313AB008316031345080318013E003E06
:10198C0083120313AC000F302B0583160313C40012
:10199C000030831203132C0583160313C5000B0DA3
:1019AC000B0D013983120313AD008B130130FB02B5
:1019BC002D0C031C8B1303188B17080083120313B5
:1019CC0060080319EA2CEB2CF62C0A128A150A2350
:1019DC000A128A1583120313DA01D9010130292D59
:1019EC005A03031DFA2CFB2C232D0A128A157B217A
:1019FC000A128A15831203132B08C1002A08C0008F
:101A0C0000304102033003194002031C0E2D0F2D30
:101A1C00232D003041020F30031940020318172DFB
:101A2C00182D232D0A128A150A230A128A150A1256
:101A3C008A156E210A128A15F02C0A128A15622157
:101A4C000A128A1500300800003083120313B60006
:101A5C000030B5000030B4000030B3002A1C372D24
:101A6C00382D4F2D2E08B3072F0803110318013EF4
:101A7C000319412DB407300803110318013E031953
:101A8C00482DB507310803110318013E03194F2DDA
:101A9C00B6070130B2000310AE0DAF0DB00DB10D95
:101AAC00B20B512D01300310AD0CAC0CAB0CAA0CCD
:101ABC00FF3E031D592D2D082C042B042A04031D55
:101ACC00682D692D342D3608AD003508AC0034086E
:101ADC00AB003308AA000800F200F301C52D8312F5
:101AEC0003130508F100700A7D2D0310F10CFF3E65
:101AFC00031D7B2D7108F3000130F305D62D8312E5
:101B0C0003130608F100700A8D2D0310F10CFF3E33
:101B1C00031D8B2D7108F3000130F305D62D8312B4
:101B2C0003130708F100700A9D2D0310F10CFF3E02
:101B3C00031D9B2D7108F3000130F305D62D831284
:101B4C0003130808F100700AAD2D0310F10CFF3ED1
:101B5C00031DAB2D7108F3000130F305D62D831254
:101B6C0003130908F100700ABD2D0310F10CFF3EA0
:101B7C00031DBB2D7108F3000130F305D62D72083F
:101B8C00003A0319752D013A0319852D033A0319EF
:101B9C00952D013A0319A52D073A0319B52DD62D0C
:101BAC0073080800003083120313C3000030C20016
:101BBC000030C1000030C0003A0839043804370442
:101BCC000319E92DEA2D352E0130C400F82D013012
:101BDC00BF000310B70DB80DB90DBA0DBF0BEF2D2B
:101BEC000130C407BA1FFB2DFC2DED2D0130BF00B9
:101BFC000310C00DC10DC20DC30DBF0BFE2D3A0855
:101C0C003E02031D132E39083D02031D132E380806
:101C1C003C02031D132E37083B02031C162E172EF5
:101C2C00262E3708BB023808031C380FBC023908B3
:101C3C00031C390FBD023A08031C3A0FBE024014B4
:101C4C0001300310BA0CB90CB80CB70CFF3E031DD5
:101C5C00272E0130C402031D342E352EFC2D4308D3
:101C6C00BA004208B9004108B8004008B7000800A3
:101C7C00023083120313AA00AB0103300A128A113B
:101C8C00D2230A128A15033083120313AA00AB0164
:101C9C0003300A128A11D2230A128A1583120313F3
:101CAC00AA01AB0103300A128A11D2230A128A1537
:101CBC0083120313AA01AA0AAB0103300A128A1178
:101CCC00D2230A128A1583120313AA01AA0AAB01A2
:101CDC0002300A128A11D2230A128A150230831298
:101CEC000313AA00AB0102300A128A11D2230A1282
:101CFC008A15103083120313C5002730C60000303C
:101D0C000A128A15A9260A128A1510308312031397
:101D1C00C5002730C60001300A128A15A9260A12FE
:101D2C008A150A128A150A230A128A1500300A1219
:101D3C008A153C210A128A1501300A128A153C2197
:101D4C000A128A15080083120313CD004508C70038
:101D5C004608C800C901CA0102300310C70DC80DDE
:101D6C00C90DCA0DFF3E031DB32E4A08AD0049082C
:101D7C00AC004808AB004708AA000030B1000030A6
:101D8C00B0000030AF000430AE000A128A152A25CC
:101D9C000A128A15831203132D08BA002C08B900F5
:101DAC002B08B8002A08B7000130BE003130BD0046
:101DBC002D30BC000030BB000A128A15D8250A123F
:101DCC008A15831203133708FF3ECB00380803181B
:101DDC00013EFF3ECC0092011214FD3092054B08DF
:101DEC00831603139200831203134D08031DFF2E59
:101DFC00002F082F0C3097009501FB30831603132E
:101E0C008705142F4D03031D0C2F0D2F142F0C3091
:101E1C009D009B01FD308316031387058312121559
:101E2C00080083120313AA01AB0100300A128A11B5
:101E3C00D2230A128A1583120313AA01AA0AAB0130
:101E4C0000300A128A11D2230A128A150230831228
:101E5C000313AA00AB0100300A128A11D2230A1212
:101E6C008A1583120313AA01AB0100300A128A11DE
:101E7C0050250A128A1583120313AA01AA0AAB0170
:101E8C0000300A128A1150250A128A150230831268
:101E9C000313AA00AB0100300A128A1150250A1252
:101EAC008A15053083120313AA00AB01AB0A01306B
:101EBC000A128A11D2230A128A15063083120313CE
:101ECC00AA00AB01AB0A01300A128A11D2230A1202
:101EDC008A15073083120313AA00AB01AB0A013039
:101EEC000A128A11D2230A128A15831203138F0144
:101EFC008E01213090000608D8008B150B100800BD
:101F0C0083120313C500EB2F41080A128A153C23D8
:101F1C000A128A15FF2F41080A128A1573230A1216
:101F2C008A15FF2F41080A128A15AA230A128A154C
:101F3C00FF2F41080A128A15E1230A128A15FF2F76
:101F4C000A128A150A230A128A15FF2F0A128A15F9
:101F5C006E210A128A15063083120313C400133043
:101F6C00C300AD30C200C20BB92FC30BB92FC40BC9
:101F7C00B92F0A128A1562210A128A1503308312AC
:101F8C000313C4008A30C3005530C200C20BCC2FDF
:101F9C00C30BCC2FC40BCC2F0A128A156E210A123C
:101FAC008A15063083120313C4001330C300AD30FE
:101FBC00C200C20BDF2FC30BDF2FC40BDF2F0A12A3
:101FCC008A1562210A128A15FF2F4508003A031957
:101FDC00A62F013A03198A2F033A0319912F013ABC
:101FEC000319982F073A03199F2F013A0319AC2FA5
:041FFC00A62F080004
:02400E00723FFF
:00000001FF
